:0C13A300EF4E6007EF1F70F81E80F5226F
:10134600AD07AC06ED4C600E7F707E001213A3ED68
:071356001D70F11C80EE2266
:10135D00AB07AA06EB4A600E7FE87E03121346EB3D
:07136D001B70F11A80EE2253
:0713B90005598080C090D0AF
:1010F100AB31E533F92402F533E532FA3400F53248
:1011010022AB45AA44A943A842FFFEFDFCC3020A43
:1011110092AB31E533F9240422120AB68F3F8E3E99
:101121008D3D8C3C227401252CF52CE4352BF52BBF
:101131002212093CF53B85F03AAE3AFFE4FCFD2270
:10114100AB2AA92C0208F65390FD4390047F0A7E36
:091151000022E47B0AFAF9F822FD
:1011AF00E4F590F5908F578B568D55EDD394024003
:1011BF000DEB540FFF2490F55CEF24D0F55D7F64A9
:1011CF007E00121346E557B408047F38800AE557AE
:1011DF00B404081212307F281212977F0E12129742
:0311EF000213AF39
:0A13AF007F011212977F01021374F0
:10137400EFD39555500EE4F55E8F5874592FF8E667
:05138400FF1212972288
:10132D000558E4F55EE558D395554003755801749D
:09133D00592558F8E6FF02129749
:101297008F531211F2E557B408058553908016E570
:1012A70057B40414AF53121267121389E553C45489
:0912B700F0FF12126712138922E4
:10130E008F52E55EC395565005E552B40A0312138B
:0F131E002DE552640A6007AF521212C0055E221D
:1012E9008B428A438944AB42AA43A9441208F66057
:1012F900130544E5447002054314F91208F6FF1278
:05130900130E80E2223A
:08107A008F188B198A1A891BDB
:10108200E518D3955540037518017F0C121297E4A9
:10109200F51CAB19AA1AA91B851C827583001209BB
:1010A2000F6047AF18121374E4F51DE51DC3955682
:1010B200501DE51D251CF582E433F583AB19AA1AF0
:1010C200A91B12090FFF600712130E051D80DCE534
:1010D2001DC3955650097F2012130E051D80F07F07
:0F10E2007D7E00121346051C80A87F0E02129718
:080EBC008F458E448D438C42EA
:100EC400E4F547121102701BF547E547C3954650F8
:100ED40071E547C3940A506A74482547F8E4F60557
:100EE4004780E7E4F547E547C395465055E41211BA
:100EF400026038121153AF45AE44AD43AC421209FF
:100F0400F2121153120967C3E5459FFF7448254740
:100F1400F8A607AF45AE44AD43AC421211531209D3
:100F2400F28F458E448D438C428013E546F4601263
:100F3400E546D3940A500B74482547F8E4F6054770
:100F440080A4E547600E2447F8E62430FF12130E10
:040F5400154780EECF
:010F58002276
:080E12008F458E448D438C4294
:100E1A00E4F547AB45AA44A943A84212110A701B3C
:100E2A00F547E547C395465069E547C3940A5062BA
:100E3A0074482547F8E4F6054780E7E4F547E547AF
:100E4A00C39546504DE4FFFEFDFCAB45AA44A943B9
:100E5A00A842C3120A926023E545540FFF7448253D
:100E6A0047F8A607AF45AE44AD43AC427804120A30
:100E7A00A38F458E448D438C428013E546F460125D
:100E8A00E546D3940A500B74482547F8E4F605471B
:100E9A0080ACE547601B2447F8E6FFD39409400677
:100EAA00EF2437FF8004E62430FF12130E15478023
:010EBA00E156
:010EBB002214
:08115A008F458E448D438C4249
:10116200E546604814FF74017E00A807088005C3A5
:1011720033CE33CED8F9FFEE3395E0FDFCEF554583
:10118200FFEE5544FEED5543FDEC5542FCE4FBFAFF
:10119200F9F8C3120A9260047F0180027F008F4730
:0C11A200E5472430FF12130E154680B400
:0111AE00221E
:060B77008B188A19891A8F
:100B7D0075310075320075331B8B2A8A2B892CAA8F
:100B8D002B121141FF7003020D33F54064256003F4
:100B9D00020D2804121128FAA92C1208F6F540C3EB
:100BAD00648094B04037D3E540648094B9502EE40E
:100BBD00F541C3E540648094B04025D3E5406480A1
:100BCD0094B9501CE54024D0FFE54175F00AA42FDF
:100BDD00F541121126FA121141F54080D57541FFEC
:100BED00E540120AF60D24250CDE420C23430C5F62
:100BFD00440CFF460D12530C96550CB0580CC262A6
:100C0D000C23630C2F640CFF660D12730C8E750C88
:100C1D00A87800000D2D1210F112093CF540FF02CD
:100C2D000D2A1210F112093CF53585F034C3E53467
:100C3D00648094805010C3E49535F535E49534F512
:100C4D00347F2D12130EAE34AF35EE3395E0FDFC2F
:100C5D0080401211121210F8120AB68F398E388D8B
:100C6D00378C36EC335010120A848F398E388D370D
:100C7D008C367F2D12130EAF39AE38AD37AC3680B2
:100C8D00111210F112113280091211121210F812F4
:100C9D00111A854146120EBC020D2D1210F11211C2
:100CAD003280091211121210F812111A85414612D2
:100CBD000E12020D2D1210F112093CF53B85F03A82
:100CCD00E541B4FF03754110AE3AAF3BE4FCFD8046
:100CDD00191211121210F812111AE541B4FF037511
:100CED004110AF3FAE3EAD3DAC3C85414612115A71
:100CFD00802E1211121210F8120AB68F308E2F8D0F
:100D0D002E8C2D801BAB31E533F924031210F81214
:100D1D000AD61212E980097F258002AF4012130E08
:060D2D00121126020B8CDE
:010D3300229D
:1012C0008F531211F2E557B408058553908016E547
:1012D00057B40414AF53121267121396E553C45453
:0912E000F0FF12126712139622AE
:1011F2004390805390FE43900212121BE59030E719
:10120200047F0180027F008F54E557B40403121259
:081212001BE55470E453907FCA
:10121A00225390FB7F0A7E001213A34390047F0A95
:06122A007E001213A32256
:101230007F301212671213897F647E0012134612E8
:10124000125A1213A312125A1213A37F20121267FA
:101250001213897FC87E000213A37F301212671217
:0712600013897FC87E002204
:10126700EF30E40543901080035390EFEF30E5052E
:1012770043902080035390DFEF30E6054390408092
:10128700035390BFEF30E7044390802253907F22AF
:0D1389005390FE1211481213A35390FB2243
:0D1396004390011211481213A35390FB2243
:100F590020202020202020202020202050726F6770
:100F690072616D20746F20696C6C75737472617431
:100F79006520746865206C6364206C6962726172B3
:100F890079207573616765200048656C6C6F2C204A
:100F9900776F726C6400446973706C61792043687F
:100FA90061720A00443A0020483A00443D253364FE
:100FB90020483D253378200A25386200456E6A6F3E
:100FC9007920456D626564646564200A50726F67B3
:100FD90072616D6D696E6700476F6F64204D6F7246
:050FE9006E696E670057
:100D340078087C007D007BFF7A0F79E17E007F0DCF
:100D44001208D07515417516047517D27B107D02F3
:100D54007F041211AF7BFF7A0F7959E4FF12107AE6
:100D64001213AF7BFF7A0F79921212E912132D7BC3
:100D7400007A0079081212E9120DF87A0F799F129D
:100D840012E97F5812130EAF1512130E120DF87AD2
:100D94000F79AD1212E97546057FD27E047D007C81
:100DA40000120EBC7BFF7A0F79B01212E97546056A
:100DB4007FCD7EAB7D007C00120E1212132D754682
:100DC400107FCD7EAB7D007C0012115A120E057A85
:100DD4000F79B485161B85171C85161D85171E856E
:100DE400161F851720120B77120E057A0F79C5127C
:040DF4000B7780FEFB
:100DF8007F027E0012135D1213AF7BFF227F027EFB
:0A0E08000012135D1213AF7BFF22EE
:03000000020FEEFE
:0C0FEE00787FE4F6D8FD75815E021035B6
:10080000E709F608DFFA8046E709F208DFFA803EDA
:1008100088828C83E709F0A3DFFA8032E309F608C7
:10082000DFFA8078E309F208DFFA807088828C832F
:10083000E309F0A3DFFA806489828A83E0A3F608E3
:10084000DFFA805889828A83E0A3F208DFFA804CBD
:1008500080D280FA80C680D4806980F28033801094
:1008600080A680EA809A80A880DA80E280CA8033FD
:1008700089828A83ECFAE493A3C8C582C8CCC58375
:10088000CCF0A3C8C582C8CCC583CCDFE9DEE78045
:100890000D89828A83E493A3F608DFF9ECFAA9F0C4
:1008A000EDFB2289828A83ECFAE0A3C8C582C8CC1A
:1008B000C583CCF0A3C8C582C8CCC583CCDFEADE33
:1008C000E880DB89828A83E493A3F208DFF980CC95
:1008D00088F0EF60010E4E60C388F0ED2402B4048E
:1008E0000050B9F582EB2402B4040050AF23234535
:0608F00082239008507302
:1008F600BB010689828A83E0225002E722BBFE0200
:09090600E32289828A83E4932232
:10090F00BB010CE58229F582E5833AF583E022509D
:10091F0006E92582F8E622BBFE06E92582F8E222E7
:0D092F00E58229F582E5833AF583E4932201
:10093C00BB010A89828A83E0F5F0A3E02250068786
:10094C00F009E71922BBFE07E3F5F009E319228948
:0B095C00828A83E493F5F0740193227B
:10096700E88FF0A4CC8BF0A42CFCE98EF0A42CFC2F
:100977008AF0EDA42CFCEA8EF0A4CDA8F08BF0A4AD
:100987002DCC3825F0FDE98FF0A42CCD35F0FCEB0C
:100997008EF0A4FEA9F0EB8FF0A4CFC5F02ECD39D1
:0F09A700FEE43CFCEAA42DCE35F0FDE43CFC223E
:1009B60075F008758200EF2FFFEE33FECD33CDCCF8
:1009C60033CCC58233C5829BED9AEC99E58298407B
:1009D6000CF582EE9BFEED9AFDEC99FC0FD5F0D658
:1009E600E4CEFBE4CDFAE4CCF9A88222B800C1B982
:1009F6000059BA002DEC8BF084CFCECDFCE5F0CBC0
:100A0600F97818EF2FFFEE33FEED33FDEC33FCEBF8
:100A160033FB10D703994004EB99FB0FD8E5E4F9B3
:100A2600FA227818EF2FFFEE33FEED33FDEC33FCA0
:100A3600C933C910D7059BE99A4007EC9BFCE99A94
:100A4600F90FD8E0E4C9FAE4CCFB2275F010EF2FD9
:100A5600FFEE33FEED33FDCC33CCC833C810D707D9
:100A66009BEC9AE899400AED9BFDEC9AFCE899F814
:0E0A76000FD5F0DAE4CDFBE4CCFAE4C8F922A7
:0E0A8400C3E49FFFE49EFEE49DFDE49CFC2283
:100A9200EB9FF5F0EA9E42F0E99D42F0E89C45F0BA
:010AA2002231
:100AA300E8600FECC313FCED13FDEE13FEEF13FF31
:030AB300D8F12255
:100AB600BB010789828A83020B285005E9F8020BDD
:100AC6001CBBFE05E9F8020B3489828A83020B40BF
:100AD600BB010789828A83020B595005E9F8020B8C
:100AE60050BBFE05E9F8020B6289828A83020B6B12
:100AF600D083D082F8E4937012740193700DA3A38F
:100B060093F8740193F5828883E4737402936860A2
:060B1600EFA3A3A380DFA2
:100FFA00020D34E493A3F8E493A34003F68001F2CC
:10100A0008DFF48029E493A3F85407240CC8C333F7
:10101A00C4540F4420C8834004F456800146F6DFC6
:10102A00E4800B01020408102040809013B9E47E8A
:10103A00019360BCA3FF543F30E509541FFEE493BB
:10104A00A360010ECF54C025E060A840B8E493A382
:10105A00FAE493A3F8E493A3C8C582C8CAC583CAAD
:10106A00F0A3C8C582C8CAC583CADFE9DEE780BE65
:0113C000002C
:0C0B1C00E6FC08E6FD08E6FE08E6FF2205
:0C0B2800E0FCA3E0FDA3E0FEA3E0FF2240
:0C0B3400E2FC08E2FD08E2FE08E2FF22FD
:100B4000E493FC740193FD740293FE740393FF22FB
:090B5000E6FB08E6FA08E6F922CA
:090B5900E0FBA3E0FAA3E0F9229D
:090B6200E2FB08E2FA08E2F922C4
:0C0B6B00E493FB740193FA740293F922E6
:00000001FF
