:0C0CCD00EF4E6007EF1F70F81E80F5224C
:100C7000AD07AC06ED4C600E7F707E00120CCDED22
:070C80001D70F11C80EE2243
:100C8700AB07AA06EB4A600E7FE87E03120C70EBF7
:070C97001B70F11A80EE2230
:0C0CD9004C63645F436F756E74657200BD
:100A7000E4F508F5097B107D027F04120AB77BFFBD
:100A80007A0C79D9120BF1C3E509940FE508942784
:100A900050237F02120C9EAE08AF09E4FCFD750ED8
:100AA000041209477F017E00120C870509E50970D1
:070AB000D6050880D280FE8C
:070CEF0005218080C090D0B8
:100C1600FFFEFDFCAB0DAA0CA90BA80AC302093600
:100C26005390FD4390047F0A7E0022E47B0AFAF982
:020C3600F822A2
:100AB700E4F590F5908F1F8B1E8D1DEDD3940240AA
:100AC7000DEB540FFF2490F524EF24D0F5257F6418
:100AD7007E00120C70E51FB408047F38800AE51FFA
:100AE700B40408120B387F28120B9F7F0E120B9F3E
:030AF700020CE509
:0A0CE5007F01120B9F7F01020C9E9D
:100C9E00EFD3951D500EE4F5268F2074212FF8E624
:050CAE00FF120B9F2264
:100C57000520E4F526E520D3951D40037520017492
:090C6700212520F8E6FF020B9F95
:100B9F008F1B120AFAE51FB40805851B908016E516
:100BAF001FB40414AF1B120B6F120CB3E51BC4540C
:090BBF00F0FF120B6F120CB322BF
:100C38008F1AE526C3951E5005E51AB40A03120C4F
:0F0C480057E51A640A6007AF1A120BC805262277
:100BF1008B0A8A0B890CAB0AAA0BA90C120800609C
:100C010013050CE50C7002050B14F9120800FF1214
:050C11000C3880E22216
:080947008F0D8E0C8D0B8C0A44
:10094F00E4F50F120C16701BF50FE50FC3950E5043
:10095F0071E50FC3940A506A7410250FF8E4F60579
:10096F000F80E7E4F50FE50FC3950E5055E4120C19
:10097F00166038120C31AF0DAE0CAD0BAC0A12086D
:10098F00A4120C31120819C3E50D9FFF7410250F27
:10099F00F8A607AF0DAE0CAD0BAC0A120C31120856
:1009AF00A48F0D8E0C8D0B8C0A8013E50EF4601244
:1009BF00E50ED3940A500B7410250FF8E4F6050FCB
:1009CF0080A4E50F600E240FF8E62430FF120C38D8
:0409DF00150F80EE82
:0109E30022F1
:100BC8008F1B120AFAE51FB40805851B908016E5ED
:100BD8001FB40414AF1B120B6F120CC0E51BC454D6
:090BE800F0FF120B6F120CC02289
:100AFA004390805390FE439002120B23E59030E717
:100B0A00047F0180027F008F1CE51FB40403120BCF
:080B1A0023E51C70E453907FF9
:100B2200225390FB7F0A7E00120CCD4390047F0A71
:060B32007E00120CCD2232
:100B38007F30120B6F120CB37F647E00120C7012A0
:100B48000B62120CCD120B62120CCD7F20120B6FB0
:100B5800120CB37FC87E00020CCD7F30120B6F12CF
:070B68000CB37FC87E0022E0
:100B6F00EF30E40543901080035390EFEF30E5052D
:100B7F0043902080035390DFEF30E6054390408091
:100B8F00035390BFEF30E7044390802253907F22AE
:0D0CB3005390FE120C26120CCD5390FB2224
:0D0CC000439001120C26120CCD5390FB2224
:030000000209E40E
:0C09E400787FE4F6D8FD758126020A2B0E
:10080000BB010689828A83E0225002E722BBFE02F6
:09081000E32289828A83E4932229
:10081900E88FF0A4CC8BF0A42CFCE98EF0A42CFC7E
:100829008AF0EDA42CFCEA8EF0A4CDA8F08BF0A4FC
:100839002DCC3825F0FDE98FF0A42CCD35F0FCEB5B
:100849008EF0A4FEA9F0EB8FF0A4CFC5F02ECD3920
:0F085900FEE43CFCEAA42DCE35F0FDE43CFC228D
:1008680075F008758200EF2FFFEE33FECD33CDCC47
:1008780033CCC58233C5829BED9AEC99E5829840CA
:100888000CF582EE9BFEED9AFDEC99FC0FD5F0D6A7
:10089800E4CEFBE4CDFAE4CCF9A88222B800C1B9D1
:1008A8000059BA002DEC8BF084CFCECDFCE5F0CB0F
:1008B800F97818EF2FFFEE33FEED33FDEC33FCEB48
:1008C80033FB10D703994004EB99FB0FD8E5E4F903
:1008D800FA227818EF2FFFEE33FEED33FDEC33FCF0
:1008E800C933C910D7059BE99A4007EC9BFCE99AE4
:1008F800F90FD8E0E4C9FAE4CCFB2275F010EF2F29
:10090800FFEE33FEED33FDCC33CCC833C810D70728
:100918009BEC9AE899400AED9BFDEC9AFCE899F863
:0E0928000FD5F0DAE4CDFBE4CCFAE4C8F922F6
:10093600EB9FF5F0EA9E42F0E99D42F0E89C45F017
:01094600228E
:1009F000020A70E493A3F8E493A34003F68001F2A3
:100A000008DFF48029E493A3F85407240CC8C33307
:100A1000C4540F4420C8834004F456800146F6DFD6
:100A2000E4800B0102040810204080900CEFE47E6B
:100A3000019360BCA3FF543F30E509541FFEE493CB
:100A4000A360010ECF54C025E060A840B8E493A392
:100A5000FAE493A3F8E493A3C8C582C8CAC583CABD
:100A6000F0A3C8C582C8CAC583CADFE9DEE780BE75
:010CF60000FD
:00000001FF
